:100000000C94F5000C9412010C9412010C94120142
:100010000C9412010C9412010C9412010C94120114
:100020000C9412010C9412010C94D2060C940C073F
:100030000C9412010C9412010C9412010C941201F4
:100040000C9412010C94B2010C9412010C94120144
:100050000C9412010C9412010C9412010C941201D4
:100060000C9412010C9412010C9412010C941201C4
:100070000C9412010C9414010C9412010C941201B2
:100080000C9412010C9412010C9412010C941201A4
:100090000C9412010C9412010C9412010C94120194
:1000A0000C9412010C9412010C9412017A0672063F
:1000B0006A0662065A0652064A0642063A063206A0
:1000C0002A0622061A0612060A060206FA05F20592
:1000D000EA05E205DA05D205CA05C205BA05B20588
:1000E000AA05A2059A0592058A0582057A05720578
:1000F0006A0562055A0552054A0542053A05320568
:100100002A0522051A0512050A050205FA04F20459
:10011000EA04E204DA04D204CA04C204BA04B2044F
:10012000AA04A2049A0492048A0482047A040A00AB
:1001300009000900090000010000CD0112000200C1
:10014000008A0143000300008601040103090472D0
:100150000112020309046A0106030309046001088D
:100160000803340031003000000006034D00320067
:10017000000012034A002E002000460069006500BE
:100180006E00650000000403090409024300020137
:1001900000C0320904000001020201000524001021
:1001A00001052401010104240206052406000107BB
:1001B00005820310004009040100020A0000000744
:1001C0000503024000000705840240000012010000
:1001D0000202000010C0167A0400010102030100AF
:1001E00001C1120180360181360011241FBECFEFFC
:1001F000DAE0DEBFCDBF11E0A0E0B1E0ECE3FCE16E
:1002000002C005900D92A031B107D9F721E0A0E11D
:10021000B1E001C01D92AE31B207E1F70E947C0A45
:100220000C940F0E0C9400001F920F920FB60F92B9
:100230001124EF92FF920F931F932F933F934F93AD
:100240005F936F937F938F939F93AF93BF93EF933E
:10025000FF93CF93DF93CDB7DEB72697DEBFCDBF39
:1002600020917800309179003E832D8330931501E1
:100270002093140180911601909117019C01990F10
:10028000440B550B29833A834B835C83CA01B90124
:100290000E94590C26EA3BE944E25FE369837A83D2
:1002A0008B839C8369817A818B819C810E94EA0C7B
:1002B0007B018C018D819E81092E000CAA0BBB0B4A
:1002C00089839A83AB83BC83BC01CD010E94590C06
:1002D00024EB38EC46EB5EE369837A838B839C8363
:1002E00069817A818B819C810E94EA0C9B01AC011F
:1002F000E982FA820B831C8369817A818B819C81DC
:100300000E94B50B69837A838B839C8369817A8190
:100310008B819C810E94210C7093170160931601C0
:10032000EAE7F0E080818064808326960FB6F89437
:10033000DEBF0FBECDBFDF91CF91FF91EF91BF9197
:10034000AF919F918F917F916F915F914F913F916D
:100350002F911F910F91FF90EF900F900FBE0F9074
:100360001F9018950F920FB60F921F9211240F93A2
:100370001F932F933F934F935F936F937F938F932D
:100380009F93AF93BF93CF93DF93EF93FF938091AE
:100390001201909113010196909313018093120121
:1003A0008091100190911101019690931101809319
:1003B00010018091100190911101099784F08091B2
:1003C0001801909119018E3091052CF001979093AE
:1003D000190180931801109211011092100180915F
:1003E00014019091150120911801309119012817DD
:1003F000390724F49093190180931801E0911801B2
:10040000F091190120911601309117014CE04E9F97
:10041000C0014F9F900D1124CDE0D0E0BE010E949D
:100420007B0D80E090E0A0E5B1E4621773070CF467
:10043000B1C04BE04E9FC0014F9F900D1124BE01F3
:100440000E947B0D80E090E0A0E4B1E462177307A6
:100450000CF4A0C04AE04E9FC0014F9F900D1124A4
:10046000BE010E947B0D80E090E0A0E3B1E4621742
:1004700073070CF48FC049E04E9FC0014F9F900D51
:100480001124BE010E947B0D80E090E0A0E2B1E467
:10049000621773070CF47EC0CF0153E0880F991FD9
:1004A0005A95E1F7BE010E947B0D80E090E0A0E14B
:1004B000B1E4621773070CF46DC047E04E9FC001B2
:1004C0004F9F900D1124BE010E947B0D80E090E0B3
:1004D000A0E0B1E4621773070CF45CC046E04E9FE5
:1004E000C0014F9F900D1124BE010E947B0D80E042
:1004F00090E0A0EEB0E4621773070CF44BC045E047
:100500004E9FC0014F9F900D1124BE010E947B0D94
:1005100080E090E0A0ECB0E462177307DCF1CF015B
:10052000880F991F880F991FBE010E947B0D80E0E4
:1005300090E0A0EAB0E46217730764F18F01000F46
:10054000111FC8018E0F9F1FBE010E947B0D80E00E
:1005500090E0A0E8B0E462177307E4F0CDE0D0E0EB
:10056000C801BE010E947B0D80E090E0A0E4B0E4F1
:10057000621773077CF0CF01BE010E947B0D80E003
:1005800090E0A0E0B0E46217730724F080E090E010
:10059000A0E8BFE38093040190930501A0930601B6
:1005A000B0930701FF91EF91DF91CF91BF91AF9190
:1005B0009F918F917F916F915F914F913F912F917B
:1005C0001F910F911F900F900FBE0F901895CF9312
:1005D000DF93E1E6F0E080E88083108285BF85BF8D
:1005E0000E946F03209A289A219A299A229A2A9A7D
:1005F000239A2B9A249A2C9A259A2D9A269A2E9AE7
:10060000529A5A9A539A5B9A549A5C9A559A5D9A5E
:10061000569A5E9AE1E8F0E0808184608083808170
:100620008D7F808380818160808380818F7E8083C5
:10063000808188608083E0E8F0E080818D7F808326
:1006400080818E7F808380818F7D808380818F7E7B
:100650008083EFE6F0E08081826080838FE090E02D
:100660009093890080938800EAE7F0E080818F779B
:100670008083ACE7B0E08C918F778C938C91806411
:100680008C9380818460808380818260808380817C
:1006900081608083CEE7D0E088818160888380811B
:1006A00088608083CBE7D0E088818F7D88838C91C0
:1006B0008B7F8C938C918D7F8C938C918E7F8C9380
:1006C0008081806880838081806480837894DF91DA
:1006D000CF9108958091E80080FFFCCF089581E0DC
:1006E0008093D70080EA8093D80082E189BD09B465
:1006F00000FEFDCF80E98093D8001092E0001092B8
:100700001D0110921A018CE08093E2007894089504
:1007100080911D0108959FB7F89480911D01882351
:1007200039F083E08093E9008091E80085FD03C003
:100730009FBF8FEF08958091F1002091E80025FD83
:1007400003C02BE62093E8009FBF08959FB7F8945D
:1007500080911D01882331F083E08093E90080912E
:10076000F20001C080E09FBF089580911D018823A1
:1007700071F08FB7F89493E09093E9002BE6909195
:10078000E80095FF03C02093E800F9CF8FBF0895DC
:1007900090911D01992371F09FB7F89424E0209364
:1007A000E90020911B01222349F02091E80025FD5A
:1007B00003C09FBF8FEF089510921B012091E400AA
:1007C000275E34E04091E80045FD12C09FBF909144
:1007D000E400921304C081E080931B01EBCF909161
:1007E0001D01992339F39FB7F8943093E900EACFBC
:1007F0008093F1008091E80085FD03C08AE3809337
:10080000E80085E080931C019FBF80E008959091EF
:100810001D019923D1F09FB7F89424E02093E900BB
:100820002091E80025FD02C09FBF0FC08093F1001A
:100830008091E80085FD03C08AE38093E80085E0AD
:1008400080931C019FBF80E008958FEF0895EF9281
:10085000FF921F93CF93DF937C01CB0120911D0169
:10086000222371F0AFB7F89424E02093E90020919F
:100870001B01222349F02091E80025FD03C0AFBFF2
:100880008FEF42C210921B01B4E0C0E4DAE315E03E
:10089000009709F437C22091E400275E3091E80008
:1008A00035FD12C0AFBF3091E400321304C081E0C7
:1008B00080931B01E5CF30911D01332309F3AFB7BE
:1008C000F894B093E900EACF2091F2004C2F421B3C
:1008D000242F30E08217930708F4482F841B9109D6
:1008E00050E04134510508F0FDC14A5A5F4FFA010A
:1008F0000C948F0DF70120812093F10097012F5F59
:100900003F4F7901F70120812093F10097012F5F7C
:100910003F4F7901F70120812093F10097012F5F6C
:100920003F4F7901F70120812093F10097012F5F5C
:100930003F4F7901F70120812093F10097012F5F4C
:100940003F4F7901F70120812093F10097012F5F3C
:100950003F4F7901F70120812093F10097012F5F2C
:100960003F4F7901F70120812093F10097012F5F1C
:100970003F4F7901F70120812093F10097012F5F0C
:100980003F4F7901F70120812093F10097012F5FFC
:100990003F4F7901F70120812093F10097012F5FEC
:1009A0003F4F7901F70120812093F10097012F5FDC
:1009B0003F4F7901F70120812093F10097012F5FCC
:1009C0003F4F7901F70120812093F10097012F5FBC
:1009D0003F4F7901F70120812093F10097012F5FAC
:1009E0003F4F7901F70120812093F10097012F5F9C
:1009F0003F4F7901F70120812093F10097012F5F8C
:100A00003F4F7901F70120812093F10097012F5F7B
:100A10003F4F7901F70120812093F10097012F5F6B
:100A20003F4F7901F70120812093F10097012F5F5B
:100A30003F4F7901F70120812093F10097012F5F4B
:100A40003F4F7901F70120812093F10097012F5F3B
:100A50003F4F7901F70120812093F10097012F5F2B
:100A60003F4F7901F70120812093F10097012F5F1B
:100A70003F4F7901F70120812093F10097012F5F0B
:100A80003F4F7901F70120812093F10097012F5FFB
:100A90003F4F7901F70120812093F10097012F5FEB
:100AA0003F4F7901F70120812093F10097012F5FDB
:100AB0003F4F7901F70120812093F10097012F5FCB
:100AC0003F4F7901F70120812093F10097012F5FBB
:100AD0003F4F7901F70120812093F10097012F5FAB
:100AE0003F4F7901F70120812093F10097012F5F9B
:100AF0003F4F7901F70120812093F10097012F5F8B
:100B00003F4F7901F70120812093F10097012F5F7A
:100B10003F4F7901F70120812093F10097012F5F6A
:100B20003F4F7901F70120812093F10097012F5F5A
:100B30003F4F7901F70120812093F10097012F5F4A
:100B40003F4F7901F70120812093F10097012F5F3A
:100B50003F4F7901F70120812093F10097012F5F2A
:100B60003F4F7901F70120812093F10097012F5F1A
:100B70003F4F7901F70120812093F10097012F5F0A
:100B80003F4F7901F70120812093F10097012F5FFA
:100B90003F4F7901F70120812093F10097012F5FEA
:100BA0003F4F7901F70120812093F10097012F5FDA
:100BB0003F4F7901F70120812093F10097012F5FCA
:100BC0003F4F7901F70120812093F10097012F5FBA
:100BD0003F4F7901F70120812093F10097012F5FAA
:100BE0003F4F7901F70120812093F10097012F5F9A
:100BF0003F4F7901F70120812093F10097012F5F8A
:100C00003F4F7901F70120812093F10097012F5F79
:100C10003F4F7901F70120812093F10097012F5F69
:100C20003F4F7901F70120812093F10097012F5F59
:100C30003F4F7901F70120812093F10097012F5F49
:100C40003F4F7901F70120812093F10097012F5F39
:100C50003F4F7901F70120812093F10097012F5F29
:100C60003F4F7901F70120812093F10097012F5F19
:100C70003F4F7901F70120812093F10097012F5F09
:100C80003F4F7901F70120812093F10097012F5FF9
:100C90003F4F7901F70120812093F10097012F5FE9
:100CA0003F4F7901F70120812093F10097012F5FD9
:100CB0003F4F7901F70120812093F10097012F5FC9
:100CC0003F4F7901F70120812093F10097012F5FB9
:100CD0003F4F7901F70120812093F10097012F5FA9
:100CE0003F4F7901F70120812093F10097012F5F99
:100CF0003F4F79012091E80025FFD093E800109341
:100D00001C01C6CDAFBF80E0DF91CF911F91FF9056
:100D1000EF9008958FB7F89490911C01992341F0BA
:100D200094E09093E9009AE39093E80010921C01FC
:100D30008FBF089580910C01089580910D01089551
:100D400080910E01089580911A0108959FB7F8943B
:100D500020911D01222339F022E02093E9003091F7
:100D6000E80035FD03C09FBF8FEF089531EA30934F
:100D7000F10030E23093F1001092F1001092F10096
:100D80001092F1001092F1002093F1001092F10006
:100D90008093F1001092F1008AE38093E8009FBFF6
:100DA00080E008951F920F920FB60F9211248F9337
:100DB0009F938091E1001092E10083FF11C0109297
:100DC000E90091E09093EB001092EC0092E1909397
:100DD000ED0098E09093F00010921D0110921A011E
:100DE00082FF13C080911D01882379F080911C013E
:100DF000882359F0815080931C01811106C084E042
:100E00008093E9008AE38093E8009F918F910F908F
:100E10000FBE0F901F9018951F920F920FB60F9252
:100E20001124EF92FF920F931F932F933F934F93B1
:100E30005F936F937F938F939F93AF93BF93EF9342
:100E4000FF93CF93DF931F92CDB7DEB71092E900E7
:100E50008091E80083FF14C19091F1008091F1002E
:100E60003091F1002091F100E32EF12CF22A009153
:100E7000F1002091F10010E0122B2091F10060911F
:100E8000F10032EF3093E800863009F046C036E0DA
:100E900086E391E0FC01459154914E155F0539F4CC
:100EA000FC013296459154914017510721F0079665
:100EB000315081F7E5C0FC01349645915491FC0115
:100EC0003696849130E0362B2F3F310519F010F023
:100ED0002FEF30E0281708F4822F3EEF9091E800C2
:100EE000292F2570D9F392FDCEC0982F813108F0BB
:100EF00090E1FA01292F222331F064916093F100EF
:100F000021503196F8CF490F511D891B3093E800CD
:100F10008111E4CF903111F3B6C0853051F48EEFDA
:100F20008093E8000E946A038E2D80688093E3001E
:100F3000AAC0893059F5911180C0E0921D0110922C
:100F40001A0110921C018EEF8093E80041E08FEDB2
:100F500091E04093E9009C012F5F3F4FFC015491C9
:100F60005093EB00552359F0F90124912093EC00A4
:100F70009C012D5F3F4F319684918093ED004F5F30
:100F8000453011F0C901E5CF8EE175C0883051F4CC
:100F9000903809F052C00E946A0380911D0180932D
:100FA000F10047C0813279F4913A09F046C00E94BD
:100FB0006A03E8E0F1E081918093F10081E0EF3095
:100FC000F807C9F736C0803299F49132B1F58091B3
:100FD000E80082FFFCCFE8E0F1E08091F10081932E
:100FE00081E0EF30F807C9F78BEF8093E80021C06C
:100FF000823241F4913209F043C0E0921A010E941A
:101000006A0317C0811119C099830E946A039981EC
:10101000923851F40093E9008091EB0085FB88271A
:1010200080F91092E90001C080E08093F1001092F5
:10103000F1008EEF8093E80026C0282F2D7F21300D
:10104000F9F49230E9F4EF28D9F40F779FEF900F7D
:101050009430B0F49EEF9093E8000093E900833061
:1010600079F089E18093EB0081E090E0002E01C0EF
:10107000880F0A94EAF78093EA001092EA0003C00E
:1010800081E28093EB000F90DF91CF91FF91EF9180
:10109000BF91AF919F918F917F916F915F914F9190
:1010A0003F912F911F910F91FF90EF900F900FBEE6
:1010B0000F901F9018951F93CF93DF93EC01FE01C3
:1010C0001491112351F01A3019F48DE00E94C803D5
:1010D000812F0E94C8032196F2CFDF91CF911F91FB
:1010E00008958A3010F490E301C097E3890F0C94BF
:1010F000C803CF93C82F82958F700E9471088C2FE0
:101100008F70CF910C947108CF93C82F892F0E94B4
:1011100079088C2FCF910C9479080C947908EF9270
:10112000FF920F931F93CF93DF93CDB7DEB727972F
:101130000FB6F894DEBF0FBECDBF8E010F5F1F4FFD
:1011400027E0F80111922A95E9F74AE0B8010E94D8
:10115000A90D7E01F8E0EF0EF11CF80181918F01DD
:1011600081110E94C8030E151F05B9F727960FB607
:10117000F894DEBF0FBECDBFDF91CF911F910F91CD
:10118000FF90EF900895EF92FF920F931F93CF93EC
:10119000DF9300D000D000D0CDB7DEB78E010F5F57
:1011A0001F4F26E0F80111922A95E9F74AE0B801AD
:1011B0000E94E50D7E01F6E0EF0EF11CF801819131
:1011C0008F0181110E94C8030E151F05B9F72696DD
:1011D0000FB6F894DEBF0FBECDBFDF91CF911F9148
:1011E0000F91FF90EF900895EF92FF920F931F934E
:1011F000CF93DF93CDB7DEB72B970FB6F894DEBF52
:101200000FBECDBF8E010F5F1F4F2BE0F801119273
:101210002A95E9F72AE0A8010E94B40D7E01FCE0BE
:10122000EF0EF11CF80181918F0181110E94C8031A
:101230000E151F05B9F72B960FB6F894DEBF0FBE3B
:10124000CDBFDF91CF911F910F91FF90EF90089547
:10125000EF92FF920F931F93CF93DF93CDB7DEB73B
:101260002B970FB6F894DEBF0FBECDBF8E010F5F78
:101270001F4F2BE0F80111922A95E9F72AE0A80107
:101280000E94C30D7E01FBE0EF0EF11CF80181917D
:101290008F0181110E94C8030E151F05B9F72B9607
:1012A0000FB6F894DEBF0FBECDBFDF91CF911F9177
:1012B0000F91FF90EF900895589A599A5A9A8CE09E
:1012C0008093B800E9E6F0E08081806280838081CD
:1012D0008F7E8083EA9A7894089584E88093BC0096
:1012E0008091BC0087FFFCCF8091BB00089584E90A
:1012F0008093BC00089520E030E08091BC0087FD21
:1013000006C02F5F3F4F293E83E03807B1F781E0E9
:10131000283E334009F480E008958093BB0084E8C0
:101320008093BC000E947B09882321F08091B90042
:10133000887F089580E008951F93CF93DF931F92D5
:10134000CDB7DEB7182F84EA8093BC0069830E9472
:101350007B096981811104C094E99093BC0014C099
:10136000812F880F662331F08F5F0E948D098834AA
:1013700051F404C00E948D09803229F484E98093DD
:10138000BC0080E001C081E00F90DF91CF911F9100
:101390000895CF93DF93C82FD62F60E00E949C0959
:1013A000882391F08D2F0E948D09882369F084E9AC
:1013B0008093BC0061E08C2F0E949C09882321F05F
:1013C000DF91CF910C946D0980E0DF91CF9108956A
:1013D000CF93DF93D62FC42F60E00E949C09811128
:1013E00002C080E00EC08D2F0E948D098823C9F3B2
:1013F0008C2F0E948D098823A1F384E98093BC007F
:1014000081E0DF91CF91089548E365E00E94E8090B
:1014100091E0811101C090E0892F08951F93CF932F
:10142000DF93D82FC62F142F0E94C909C23058F459
:10143000E1E0F0E0012E01C0EE0F0A94EAF74E2F32
:10144000409548230DC09EEE9C0F923078F421E029
:1014500030E0012E01C0220F0A94EAF7482F422BF8
:101460006C2F8D2F0E94E80981E001C080E0DF91A0
:10147000CF911F9108951F93CF93DF93D82FC62F3D
:10148000142F0E94C9099EEE9C0F923058F4E1E09F
:10149000F0E0012E01C0EE0F0A94EAF74E2F4095BE
:1014A00048230BC0C23078F421E030E0012E01C0A7
:1014B000220F0A94EAF7482F422B6C2F8D2F0E949F
:1014C000E80981E001C080E0DF91CF911F9108958C
:1014D000CF93DF931F92CDB7DEB749830E94C9092E
:1014E00090E0498102C0959587954A95E2F7817011
:1014F0000F90DF91CF910895CDB7DEB728970FB643
:10150000F894DEBF0FBECDBF0E94E7026A9A7298C0
:101510008091040190910501A0910601B09107010D
:1015200089839A83AB83BC838091000190910101F0
:10153000A0910201B09103018D839E83AF83B88790
:101540009C01AD0169817A818B819C810E94E50CAF
:101550001816BCF520E030E040E551E469817A815D
:101560008B819C810E94E50C181634F189819A8147
:10157000AB81BC818093000190930101A093020193
:10158000B0930301109213011092120160910001B7
:101590007091010180910201909103010E94210C40
:1015A000462F572FFA013197ED30F10508F0D9C0D9
:1015B000EF5EF14F0C948F0D80E090E0A0E5B1E478
:1015C000D9CF80911201909113014697FCF220E04F
:1015D00030E040E85FE36D817E818F8198850E94D5
:1015E000E50C18167CF620E030E040E85FE36D8102
:1015F0007E818F8198850E94B40B60930001709367
:1016000001018093020190930301BCCF289829988F
:101610002A982B982C982D982E985A985B985C981D
:101620005D985E9880911601909117010E948F0835
:1016300084E391E00E945B08809118019091190168
:101640000E948F0882E391E00E945B086091040190
:101650007091050180910601909107010E94210C73
:10166000CB010E948F0880E391E00E945B0820E09C
:1016700030E04AE754E460910001709101018091EB
:101680000201909103010E94EA0C69837A838B83A3
:101690009C8369817A818B819C810E94210CCB0182
:1016A0000E948F088EE291E00E945B0831CF28985B
:1016B00029982A982B982C982D982E985A985B98B0
:1016C0005C985D985E9AAECF289829982A982B98B6
:1016D0002C982D982E985A985B985C985D9AF2CF2A
:1016E000289829982A982B982C982D982E985A98B3
:1016F0005B985C9AF3CF289829982A982B982C9875
:101700002D982E985A985B9AF4CF289829982A9861
:101710002B982C982D982E985A9AF5CF289829987E
:101720002A982B982C982D982E9AF6CF289829989D
:101730002A982B982C982D9AF7CF289829982A9890
:101740002B982C9AF8CF289829982A982B9AF9CF79
:10175000289829982A9AFACF2898299AFBCF289A6C
:10176000FCCF6E9A76985ECF5058BB27AA270E946E
:10177000CC0B0C94AB0C0E949D0C38F00E94A40C76
:1017800020F039F49F3F19F426F40C949A0C0EF4CF
:10179000E095E7FB0C94940CE92F0E94BC0C58F3E5
:1017A000BA17620773078407950720F079F4A6F546
:1017B0000C94DE0C0EF4E0950B2EBA2FA02D0B012D
:1017C000B90190010C01CA01A0011124FF27591B86
:1017D00099F0593F50F4503E68F11A16F040A22F8C
:1017E000232F342F4427585FF3CF469537952795FD
:1017F000A795F0405395C9F77EF41F16BA0B620BFC
:10180000730B840BBAF09150A1F0FF0FBB1F661F42
:10181000771F881FC2F70EC0BA0F621F731F841F85
:1018200048F4879577956795B795F7959E3F08F0AB
:10183000B0CF9395880F08F09927EE0F979587956D
:1018400008950E94280C6894B1110C94DF0C08953F
:101850000E94C40C88F09F5798F0B92F9927B75170
:10186000B0F0E1F0660F771F881F991F1AF0BA9544
:10187000C9F714C0B13091F00E94DE0CB1E00895B8
:101880000C94DE0C672F782F8827B85F39F0B93FAA
:10189000CCF3869577956795B395D9F73EF49095F7
:1018A0008095709561957F4F8F4F9F4F0895E89475
:1018B00009C097FB3EF490958095709561957F4F98
:1018C0008F4F9F4F9923A9F0F92F96E9BB27939546
:1018D000F695879577956795B795F111F8CFFAF456
:1018E000BB0F11F460FF1BC06F5F7F4F8F4F9F4F87
:1018F00016C0882311F096E911C0772321F09EE8E5
:10190000872F762F05C0662371F096E8862F70E04A
:1019100060E02AF09A95660F771F881FDAF7880F24
:101920009695879597F9089597F99F6780E870E0F5
:1019300060E008959FEF80EC089500240A94161645
:10194000170618060906089500240A9412161306AD
:10195000140605060895092E0394000C11F488233B
:1019600052F0BB0F40F4BF2B11F460FF04C06F5F57
:101970007F4F8F4F9F4F089557FD9058440F551F2D
:1019800059F05F3F71F04795880F97FB991F61F001
:101990009F3F79F087950895121613061406551F78
:1019A000F2CF4695F1DF08C0161617061806991FE4
:1019B000F1CF86957105610508940895E894BB27D9
:1019C00066277727CB0197F908950E94570D08F4F1
:1019D0008FEF08950E94FD0C0C94AB0C0E949D0C9F
:1019E00038F00E94A40C20F0952311F00C94940C74
:1019F0000C949A0C11240C94DF0C0E94BC0C70F314
:101A0000959FC1F3950F50E0551F629FF001729FA3
:101A1000BB27F00DB11D639FAA27F00DB11DAA1FB2
:101A2000649F6627B00DA11D661F829F2227B00DFF
:101A3000A11D621F739FB00DA11D621F839FA00D8A
:101A4000611D221F749F3327A00D611D231F849FDA
:101A5000600D211D822F762F6A2F11249F57504031
:101A60009AF0F1F088234AF0EE0FFF1FBB1F661FAC
:101A7000771F881F91505040A9F79E3F510580F075
:101A80000C94940C0C94DF0C5F3FE4F3983ED4F379
:101A9000869577956795B795F795E7959F5FC1F719
:101AA000FE2B880F911D9695879597F90895990FAC
:101AB0000008550FAA0BE0E8FEEF16161706E80718
:101AC000F907C0F012161306E407F50798F0621B39
:101AD000730B840B950B39F40A2661F0232B242B0E
:101AE000252B21F408950A2609F4A140A6958FEF2D
:101AF000811D811D089597FB072E16F4009407D0D1
:101B000077FD09D00E94950D07FC05D03EF4909515
:101B100081959F4F0895709561957F4F0895EE0FC1
:101B2000FF1F0590F491E02D0994AA1BBB1B51E106
:101B300007C0AA1FBB1FA617B70710F0A61BB70B3D
:101B4000881F991F5A95A9F780959095BC01CD01E2
:101B50000895BB274A3031F4992322F4BDE29095D1
:101B600081959F4F0C94E60DBB272A3051F49923A1
:101B700042F4BDE290958095709561957F4F8F4FAF
:101B80009F4F0C94C40DBB27FA01A62F6217710555
:101B900081059105330B30FB66F0AA27660F771F8E
:101BA000881F991FAA1FA21710F0A21B6395385017
:101BB000A9F7A05DAA3308F0A95DA19336F7B1118A
:101BC000B1931082CA010C94FF0DBB27FB0155276E
:101BD000AA27880F991FAA1FA41710F0A41B83958A
:101BE0005051B9F7A05DAA3308F0A95DA193009701
:101BF00079F7B111B1931192CB010C94FF0DDC0177
:101C0000FC01672F71917723E1F7329704C07C9133
:101C10006D9370836291AE17BF07C8F30895F8946F
:101C2000FFCF060B570B640B700B7B0B850B8E0BDA
:0C1C3000960B9D0BA30BA80BAC0BAF0B8D
:101C3C000000803F0000803F00E100000000080031
:00000001FF
