:100000000C94F1000C940E010C940E010C940E0152
:100010000C940E010C940E010C940E010C940E0124
:100020000C940E010C940E010C94BF040C94F90472
:100030000C940E010C940E010C940E010C940E0104
:100040000C940E010C940E010C940E010C940E01F4
:100050000C940E010C940E010C940E010C940E01E4
:100060000C940E010C940E010C940E010C940E01D4
:100070000C940E010C940E010C940E010C940E01C4
:100080000C940E010C940E010C940E010C940E01B4
:100090000C940E010C940E010C940E010C940E01A4
:1000A0000C940E010C940E010C940E0167045F0475
:1000B00057044F0447043F0437042F0427041F0448
:1000C00017040F040704FF03F703EF03E703DF033D
:1000D000D703CF03C703BF03B703AF03A7039F0330
:1000E00097038F0387037F0377036F0367035F0320
:1000F00057034F0347033F0337032F0327031F0310
:1001000017030F030703FF02F702EF02E702DF0204
:10011000D702CF02C702BF02B702AF02A7029F02F7
:1001200097028F0287027F0277026F026702000147
:100130000000C5011200020000820143000300001C
:100140007E0104010309046A011202030904620129
:100150000603030904580108080334003100300085
:10016000000006034D003200000012034A002E007A
:1001700020004600690065006E0065000000040371
:10018000090409024300020100C032090400000111
:1001900002020100052400100105240101010424CC
:1001A0000206052406000107058203100040090429
:1001B0000100020A000000070503024000000705D5
:1001C00084024000001201000202000010C0167AF2
:1001D000040001010203010001C112018036018106
:1001E000360011241FBECFEFDAE0DEBFCDBF11E035
:1001F000A0E0B1E0EAE7F3E102C005900D92A8307B
:10020000B107D9F721E0A8E0B1E001C01D92A1310A
:10021000B207E1F70E9449070C94BB090C94000057
:10022000CF93DF93E1E6F0E080E88083108285BF22
:1002300085BF0E945C01849A8C98859A8D98869AD5
:100240008E98EAE7F0E080818F778083ACE7B0E0BA
:100250008C918F778C938C9180648C938081846057
:100260008083808182608083808181608083CEE70B
:10027000D0E0888181608883808180628083CBE741
:10028000D0E088818F7D88838C918B7F8C938C913B
:100290008D7F8C938C918E7F8C93808180688083FE
:1002A0008081806480837894DF91CF9108958091DC
:1002B000E80080FFFCCF089581E08093D70080EABA
:1002C0008093D80082E189BD09B400FEFDCF80E9AA
:1002D0008093D8001092E0001092100110920D014E
:1002E0008CE08093E2007894089580911001089545
:1002F0009FB7F89480911001882339F083E08093B0
:10030000E9008091E80085FD03C09FBF8FEF08954D
:100310008091F1002091E80025FD03C02BE6209399
:10032000E8009FBF08959FB7F8948091100188233B
:1003300031F083E08093E9008091F20001C080E019
:100340009FBF089580911001882371F08FB7F894B2
:1003500093E09093E9002BE69091E80095FF03C0AD
:100360002093E800F9CF8FBF089590911001992351
:1003700071F09FB7F89424E02093E90020910E01DA
:10038000222349F02091E80025FD03C09FBF8FEF95
:10039000089510920E012091E400275E34E0409110
:1003A000E80045FD12C09FBF9091E400921304C085
:1003B00081E080930E01EBCF90911001992339F3E6
:1003C0009FB7F8943093E900EACF8093F1008091D1
:1003D000E80085FD03C08AE38093E80085E0809310
:1003E0000F019FBF80E00895909110019923D1F0F3
:1003F0009FB7F89424E02093E9002091E80025FDC0
:1004000002C09FBF0FC08093F1008091E80085FD7E
:1004100003C08AE38093E80085E080930F019FBFCB
:1004200080E008958FEF0895EF92FF921F93CF938E
:10043000DF937C01CB0120911001222371F0AFB733
:10044000F89424E02093E90020910E01222349F042
:100450002091E80025FD03C0AFBF8FEF42C210928C
:100460000E01B4E0C0E4DAE315E0009709F437C206
:100470002091E400275E3091E80035FD12C0AFBF47
:100480003091E400321304C081E080930E01E5CF87
:1004900030911001332309F3AFB7F894B093E9001A
:1004A000EACF2091F2004C2F421B242F30E082171C
:1004B000930708F4482F841B910950E041345105FB
:1004C00008F0FDC14A5A5F4FFA010C944F09F70139
:1004D00020812093F10097012F5F3F4F7901F701B1
:1004E00020812093F10097012F5F3F4F7901F701A1
:1004F00020812093F10097012F5F3F4F7901F70191
:1005000020812093F10097012F5F3F4F7901F70180
:1005100020812093F10097012F5F3F4F7901F70170
:1005200020812093F10097012F5F3F4F7901F70160
:1005300020812093F10097012F5F3F4F7901F70150
:1005400020812093F10097012F5F3F4F7901F70140
:1005500020812093F10097012F5F3F4F7901F70130
:1005600020812093F10097012F5F3F4F7901F70120
:1005700020812093F10097012F5F3F4F7901F70110
:1005800020812093F10097012F5F3F4F7901F70100
:1005900020812093F10097012F5F3F4F7901F701F0
:1005A00020812093F10097012F5F3F4F7901F701E0
:1005B00020812093F10097012F5F3F4F7901F701D0
:1005C00020812093F10097012F5F3F4F7901F701C0
:1005D00020812093F10097012F5F3F4F7901F701B0
:1005E00020812093F10097012F5F3F4F7901F701A0
:1005F00020812093F10097012F5F3F4F7901F70190
:1006000020812093F10097012F5F3F4F7901F7017F
:1006100020812093F10097012F5F3F4F7901F7016F
:1006200020812093F10097012F5F3F4F7901F7015F
:1006300020812093F10097012F5F3F4F7901F7014F
:1006400020812093F10097012F5F3F4F7901F7013F
:1006500020812093F10097012F5F3F4F7901F7012F
:1006600020812093F10097012F5F3F4F7901F7011F
:1006700020812093F10097012F5F3F4F7901F7010F
:1006800020812093F10097012F5F3F4F7901F701FF
:1006900020812093F10097012F5F3F4F7901F701EF
:1006A00020812093F10097012F5F3F4F7901F701DF
:1006B00020812093F10097012F5F3F4F7901F701CF
:1006C00020812093F10097012F5F3F4F7901F701BF
:1006D00020812093F10097012F5F3F4F7901F701AF
:1006E00020812093F10097012F5F3F4F7901F7019F
:1006F00020812093F10097012F5F3F4F7901F7018F
:1007000020812093F10097012F5F3F4F7901F7017E
:1007100020812093F10097012F5F3F4F7901F7016E
:1007200020812093F10097012F5F3F4F7901F7015E
:1007300020812093F10097012F5F3F4F7901F7014E
:1007400020812093F10097012F5F3F4F7901F7013E
:1007500020812093F10097012F5F3F4F7901F7012E
:1007600020812093F10097012F5F3F4F7901F7011E
:1007700020812093F10097012F5F3F4F7901F7010E
:1007800020812093F10097012F5F3F4F7901F701FE
:1007900020812093F10097012F5F3F4F7901F701EE
:1007A00020812093F10097012F5F3F4F7901F701DE
:1007B00020812093F10097012F5F3F4F7901F701CE
:1007C00020812093F10097012F5F3F4F7901F701BE
:1007D00020812093F10097012F5F3F4F7901F701AE
:1007E00020812093F10097012F5F3F4F7901F7019E
:1007F00020812093F10097012F5F3F4F7901F7018E
:1008000020812093F10097012F5F3F4F7901F7017D
:1008100020812093F10097012F5F3F4F7901F7016D
:1008200020812093F10097012F5F3F4F7901F7015D
:1008300020812093F10097012F5F3F4F7901F7014D
:1008400020812093F10097012F5F3F4F7901F7013D
:1008500020812093F10097012F5F3F4F7901F7012D
:1008600020812093F10097012F5F3F4F7901F7011D
:1008700020812093F10097012F5F3F4F7901F7010D
:1008800020812093F10097012F5F3F4F7901F701FD
:1008900020812093F10097012F5F3F4F7901F701ED
:1008A00020812093F10097012F5F3F4F7901F701DD
:1008B00020812093F10097012F5F3F4F7901F701CD
:1008C00020812093F10097012F5F3F4F7901209104
:1008D000E80025FFD093E80010930F01C6CDAFBF0D
:1008E00080E0DF91CF911F91FF90EF9008958FB737
:1008F000F89490910F01992341F094E09093E900CE
:100900009AE39093E80010920F018FBF08958091B1
:1009100004010895809105010895809106010895CC
:1009200080910D0108959FB7F89420911001222322
:1009300039F022E02093E9003091E80035FD03C052
:100940009FBF8FEF089531EA3093F10030E230938A
:10095000F1001092F1001092F1001092F10010924B
:10096000F1002093F1001092F1008093F1001092B9
:10097000F1008AE38093E8009FBF80E008951F9212
:100980000F920FB60F9211248F939F938091E100E5
:100990001092E10083FF11C01092E90091E0909362
:1009A000EB001092EC0092E19093ED0098E09093B0
:1009B000F0001092100110920D0182FF13C080917F
:1009C0001001882379F080910F01882359F081501C
:1009D00080930F01811106C084E08093E9008AE3CF
:1009E0008093E8009F918F910F900FBE0F901F9002
:1009F00018951F920F920FB60F921124EF92FF924B
:100A00000F931F932F933F934F935F936F937F9316
:100A10008F939F93AF93BF93EF93FF93CF93DF9306
:100A20001F92CDB7DEB71092E9008091E80083FFF6
:100A300014C19091F1008091F1003091F10020916A
:100A4000F100E32EF12CF22A0091F1002091F10047
:100A500010E0122B2091F1006091F10032EF309301
:100A6000E800863009F046C036E08EE291E0FC01F5
:100A7000459154914E155F0539F4FC01329645912C
:100A800054914017510721F00796315081F7E5C086
:100A9000FC01349645915491FC013696849130E0E6
:100AA000362B2F3F310519F010F02FEF30E02817CB
:100AB00008F4822F3EEF9091E800292F2570D9F39A
:100AC00092FDCEC0982F813108F090E1FA01292FD4
:100AD000222331F064916093F10021503196F8CFD8
:100AE000490F511D891B3093E8008111E4CF9031EB
:100AF00011F3B6C0853051F48EEF8093E8000E9468
:100B000057018E2D80688093E300AAC0893059F583
:100B1000911180C0E092100110920D0110920F010E
:100B20008EEF8093E80041E087ED91E04093E9008B
:100B30009C012F5F3F4FFC0154915093EB005523D4
:100B400059F0F90124912093EC009C012D5F3F4F57
:100B5000319684918093ED004F5F453011F0C901CB
:100B6000E5CF8EE175C0883051F4903809F052C05D
:100B70000E945701809110018093F10047C081329B
:100B800079F4913A09F046C00E945701E0E0F1E0A3
:100B900081918093F10081E0E730F807C9F736C012
:100BA000803299F49132B1F58091E80082FFFCCF58
:100BB000E0E0F1E08091F100819381E0E730F80717
:100BC000C9F78BEF8093E80021C0823241F4913263
:100BD00009F043C0E0920D010E94570117C0811136
:100BE00019C099830E9457019981923851F400935A
:100BF000E9008091EB0085FB882780F91092E900DD
:100C000001C080E08093F1001092F1008EEF80939C
:100C1000E80026C0282F2D7F2130F9F49230E9F426
:100C2000EF28D9F40F779FEF900F9430B0F49EEF38
:100C30009093E8000093E900833079F089E1809394
:100C4000EB0081E090E0002E01C0880F0A94EAF7E3
:100C50008093EA001092EA0003C081E28093EB00E7
:100C60000F90DF91CF91FF91EF91BF91AF919F9145
:100C70008F917F916F915F914F913F912F911F9134
:100C80000F91FF90EF900F900FBE0F901F9018954F
:100C90001F93CF93DF93EC01FE011491112351F0C8
:100CA0001A3019F48DE00E94B501812F0E94B50120
:100CB0002196F2CFDF91CF911F9108958A3010F4E1
:100CC00090E301C097E3890F0C94B501CF93C82F2F
:100CD00082958F700E945E068C2F8F70CF910C943E
:100CE0005E06CF93C82F892F0E9466068C2FCF9166
:100CF0000C9466060C946606EF92FF920F931F9376
:100D0000CF93DF93CDB7DEB727970FB6F894DEBF4A
:100D10000FBECDBF8E010F5F1F4F27E0F80111926C
:100D20002A95E9F74AE0B8010E9455097E01F8E0EA
:100D3000EF0EF11CF80181918F0181110E94B50124
:100D40000E151F05B9F727960FB6F894DEBF0FBE34
:100D5000CDBFDF91CF911F910F91FF90EF9008953C
:100D6000EF92FF920F931F93CF93DF9300D000D0A9
:100D700000D0CDB7DEB78E010F5F1F4F26E0F80120
:100D800011922A95E9F74AE0B8010E9491097E0183
:100D9000F6E0EF0EF11CF80181918F0181110E94A4
:100DA000B5010E151F05B9F726960FB6F894DEBFEC
:100DB0000FBECDBFDF91CF911F910F91FF90EF90AC
:100DC0000895EF92FF920F931F93CF93DF93CDB7C8
:100DD000DEB72B970FB6F894DEBF0FBECDBF8E01E6
:100DE0000F5F1F4F2BE0F80111922A95E9F72AE0D7
:100DF000A8010E9460097E01FCE0EF0EF11CF801E1
:100E000081918F0181110E94B5010E151F05B9F75F
:100E10002B960FB6F894DEBF0FBECDBFDF91CF91FA
:100E20001F910F91FF90EF900895EF92FF920F9313
:100E30001F93CF93DF93CDB7DEB72B970FB6F89400
:100E4000DEBF0FBECDBF8E010F5F1F4F2BE0F8013D
:100E500011922A95E9F72AE0A8010E946F097E0104
:100E6000FBE0EF0EF11CF80181918F0181110E94CE
:100E7000B5010E151F05B9F72B960FB6F894DEBF16
:100E80000FBECDBFDF91CF911F910F91FF90EF90DB
:100E900008950E9410016A9A729804E013E0F2E04B
:100EA000BF2EAA24A394C0917800D09179006091BC
:100EB000090170910A01882777FD8095982F0E947B
:100EC000600824EA30E74DE75FE30E94EC086B011D
:100ED0007C01BE0180E090E00E945E0820E037EDDA
:100EE00043E25CE30E94EC089B01AC01C701B60140
:100EF0000E94C9070E942D08AB0170930A016093FC
:100F0000090120910B0130910C012617370724F4B9
:100F100070930C0160930B0180910B0190910C0177
:100F20009C01220F331F280F391F37FF02C02D5F8E
:100F30003F4F359527953595279524173507BCF0F4
:100F40009C0197FF02C02F5F3F4F359527952417CF
:100F50003507C4F097FD03969595879595958795E8
:100F60008417950754F0A09208018C9809C000934B
:100F700008018C9A8D9A8E9A96CFB09208018C9A1D
:100F80008D9804C0109308018C9A8D9A8E988BCFFF
:100F90005058BB27AA270ED0E5C0D6D030F0DBD002
:100FA00020F031F49F3F11F41EF4CBC00EF4E09515
:100FB000E7FBC1C0E92FE7D080F3BA1762077307D8
:100FC0008407950718F071F49EF5FFC00EF4E095C4
:100FD0000B2EBA2FA02D0B01B90190010C01CA01F3
:100FE000A0011124FF27591B99F0593F50F4503E9E
:100FF00068F11A16F040A22F232F342F4427585F90
:10100000F3CF469537952795A795F0405395C9F7A7
:101010007EF41F16BA0B620B730B840BBAF091505F
:10102000A1F0FF0FBB1F661F771F881FC2F70EC0FE
:10103000BA0F621F731F841F48F4879577956795D1
:10104000B795F7959E3F08F0B3CF9395880F08F0BA
:101050009927EE0F97958795089504D06894B1115C
:10106000B5C0089598D088F09F5790F0B92F992770
:10107000B751A0F0D1F0660F771F881F991F1AF0A3
:10108000BA95C9F712C0B13081F09FD0B1E0089590
:101090009CC0672F782F8827B85F39F0B93FCCF311
:1010A000869577956795B395D9F73EF49095809599
:1010B000709561957F4F8F4F9F4F0895E89409C0B9
:1010C00097FB3EF490958095709561957F4F8F4F7B
:1010D0009F4F9923A9F0F92F96E9BB279395F69591
:1010E000879577956795B795F111F8CFFAF4BB0F0F
:1010F00011F460FF1BC06F5F7F4F8F4F9F4F16C073
:10110000882311F096E911C0772321F09EE8872FFC
:10111000762F05C0662371F096E8862F70E060E0B8
:101120002AF09A95660F771F881FDAF7880F969531
:10113000879597F9089597F99F6780E870E060E0D8
:1011400008959FEF80EC089500240A941616170660
:1011500018060906089500240A94121613061406A8
:1011600005060895092E0394000C11F4882352F00B
:10117000BB0F40F4BF2B11F460FF04C06F5F7F4FC3
:101180008F4F9F4F089557FD9058440F551F59F0AA
:101190005F3F71F04795880F97FB991F61F09F3F64
:1011A00079F087950895121613061406551FF2CF8D
:1011B0004695F1DF08C0161617061806991FF1CFDD
:1011C00086957105610508940895E894BB27662704
:1011D0007727CB0197F908950BD0C4CFB5DF28F05E
:1011E000BADF18F0952309F0A6CFABCF1124EECFCC
:1011F000CADFA0F3959FD1F3950F50E0551F629F72
:10120000F001729FBB27F00DB11D639FAA27F00D5F
:10121000B11DAA1F649F6627B00DA11D661F829F86
:101220002227B00DA11D621F739FB00DA11D621F6B
:10123000839FA00D611D221F749F3327A00D611D88
:10124000231F849F600D211D822F762F6A2F11246A
:101250009F5750408AF0E1F088234AF0EE0FFF1FBD
:10126000BB1F661F771F881F91505040A9F79E3FF4
:10127000510570F060CFAACF5F3FECF3983EDCF3EE
:10128000869577956795B795F795E7959F5FC1F731
:10129000FE2B880F911D9695879597F90895EE0F6F
:1012A000FF1F0590F491E02D0994BB274A3031F4DB
:1012B000992322F4BDE2909581959F4F0C94920959
:1012C000BB272A3051F4992342F4BDE290958095D2
:1012D000709561957F4F8F4F9F4F0C947009BB277E
:1012E000FA01A62F6217710581059105330B30FBBA
:1012F00066F0AA27660F771F881F991FAA1FA217DB
:1013000010F0A21B63953850A9F7A05DAA3308F02E
:10131000A95DA19336F7B111B1931082CA010C9463
:10132000AB09BB27FB015527AA27880F991FAA1FC6
:10133000A41710F0A41B83955051B9F7A05DAA33F0
:1013400008F0A95DA193009779F7B111B1931192BB
:10135000CB010C94AB09DC01FC01672F7191772361
:10136000E1F7329704C07C916D9370836291AE1760
:0A137000BF07C8F30895F894FFCFFB
:08137A0000E100000000080082
:00000001FF
